:020000040800F2
:100000000000012065360008D9100008DD10000846
:10001000E1100008E5100008E910000800000000E9
:10002000000000000000000000000000B5360008DD
:10003000ED100008000000009901000811350008CB
:10004000B5360008B5360008B5360008B5360008E4
:10005000B5360008B5360008B5360008B5360008D4
:10006000B5360008B5360008B5360008B5360008C4
:10007000B5360008B5360008B5360008B5360008B4
:10008000B5360008B5360008B5360008B5360008A4
:10009000B5360008B5360008B5360008B536000894
:1000A000B5360008F1100008B5360008B53600086E
:1000B000B5360008B5360008B5360008B536000874
:1000C000B5360008B5360008B5360008B536000864
:1000D000B5360008B5360008B5360008B536000854
:1000E000B5360008B5360008B5360008B536000844
:1000F000B5360008B5360008B5360008B536000834
:10010000B53600080000000000000000B536000809
:10011000B5360008B5360008B5360008B536000813
:10012000B5360008B5360008B5360008B536000803
:10013000B5360008B53600080000000000000000D9
:10014000B5360008B5360008B536000800000000D6
:10015000000000000000000000000000000000009F
:10016000B5360008B5360008B5360008B5360008C3
:10017000B5360008B5360008B5360008B5360008B3
:10018000B5360008B5360008000000000000000089
:04019000B536000878
:100198004E48816859B91EF0100F1CBF08B015E011
:1001A8004B490A6822F001020A601AB00EE0EFF328
:1001B80009821EF0100F03D1A2F1400282EC108ACE
:1001C800A2F128024A60036882E8F84F414988474B
:1001D8008168C1B14A6892E8F84F036002F12802C9
:1001E8001EF0100F01D1B2EC108A82F309889069D1
:1001F8003949884202DB394A904203DB4FF000015B
:1002080081F311887047364836490968401A80F3E7
:1002180008884FF08071C161334981617FF0060E13
:10022800704701BC31488047204602BC88475DF8CA
:1002380004EB2F490847002809D0EFF314816A46D8
:100248007346A0E8FE0F80EC108A2A4880472A48A7
:1002580024490968401A20F0070080F308884FF005
:1002680000011A48417081F3118862B623494FF0A2
:1002780080520A60BFF34F8FBFF36F8FFEE7B0E87D
:10028800FE0F81F31488BFF36F8F95469E4690EC5E
:10029800108A704703680CB44FF00001417081F375
:1002A800118816494FF080520A60BFF34F8FBFF391
:1002B8006F8F0CBC0360704710494FF080520A6082
:1002C800BFF34F8FBFF36F8F70470000B851002006
:1002D80034EF00E0C54000089D020008BE02000897
:1002E800605A0020EC4D00080536000899400008C7
:1002F800B540000871400008805A002004ED00E075
:100308000348044B834202D0034B03B1184770479C
:100318006C0000206C000020000000000548064B1F
:100328001B1AD90F01EBA301491002D0034B03B1EB
:10033800184770476C0000206C0000200000000087
:1003480010B5064C237843B9FFF7DAFF044B13B115
:100358000448AFF300800123237010BD7000002013
:1003680000000000384B000808B5054B1BB10549D3
:100378000548AFF30080BDE80840FFF7CFBF00BFD6
:100388000000000074000020384B0008F8B5114C3C
:100398000778236846782BB9012000F0FBFC236816
:1003A800002BF9D00C4D07EB87030C4F05EB831599
:1003B800002400F0E9FC3B6801345B6A45F8043F1F
:1003C800A642F6D10A2000F0E5FC0A2000F0E2FC83
:1003D800F8E700BF98350020983500204435002004
:1003E8002DE9F04FDFF80CA3DFF80C93F1B000AF64
:1003F8006423092207F11C01484602F017FB002874
:10040800F6D107F1180307F1160207F1150107F1F4
:100418001C0000F0D1FB0028EAD17B7D042BE7D833
:10042800DFE813F06C01AB0002021700050007F1CA
:1004380018030022042107F1280000F001FC00281D
:10044800D6D164230A2207F12801484602F0A2F90E
:10045800CEE74FF4DC520021934804F017FBDAF89A
:10046800003000245C62914B87F824404FF4CB7233
:10047800214607F128001C60C7E9074404F006FB81
:100488003B7E8B48FB75214600F0B4FC89498A4BBA
:1004980008608A4818608A4898608A4858604FF40B
:1004A800007589489C811E4658611D61184607F1F0
:1004B8001703194600F04CFC844BB5621860844859
:1004C800B061844830628448F06107F117058348B9
:1004D800F062294606F11800B48400F039FC7B4B21
:1004E800586050461C4601F00BFF704A01234FF438
:1004F8007A70136000F04EFC504601F039FF206816
:1005080000F03CFC606800F039FC6A49086800F0BB
:10051800CBFC3A7E644B0321920007F1280000F0DF
:100528008FFB002800F023823A7E6D4B9200032156
:1005380007F1280000F084FB002800F00E82694BC8
:100548000122032107F1280000F07AFB002800F0BF
:100558001882654B0122032107F1280000F070FB87
:1005680000287FF445AF4FF47A734FF4CB7207F14C
:100578002801484602F00EF93AE74FF4DC52002110
:100588004948C7F804D004F081FADAF800300024AA
:100598005C62464B87F824404FF4CB72214607F142
:1005A80028001C60C7E9074404F070FA397E4B0044
:1005B800073303F47E73ADEB030D6A46002933D08D
:1005C800414EDFF8F880DFF804B13B4D0DF101032F
:1005D8003146BB6046465B4688469346FB60434BC4
:1005E800AB604FF00003AB814FF400732B61404BBD
:1005F8006B60BB68797E0BF814402E6003F814100A
:10060800C5F814800BEB4401284600F0A1FB397EA5
:10061800FB680134A14243F8040B06F1380605F1E2
:10062800180508F50078D9D8504601F069FE1F4A28
:10063800012341F28830136000F0ACFB504601F012
:1006480097FE3B7E63B3214D002455F8040B00F060
:1006580095FB3B7E0134A342F7D80BB3124D00241F
:1006680005E03B7E0134A34205F5A07518D97A7ED2
:100678002B469200012107F1280000F0E1FA00283A
:10068800EFD14FF47A734FF4CB7207F12801484643
:1006980002F080F83B7E0134A34205F5A075E6D848
:1006A800D7F804D0A4E600BF9C3500209835002078
:1006B800000000209035002054060020840100200E
:1006C800D1090008504B0008640800206434002059
:1006D800BC010020490A0008644B0008640A002095
:1006E800DC3600201C3800205C390020410B000853
:1006F800884B000844350020BC3400204FF4DC52FD
:100708000021A548C7F804D004F0C0F9DAF8003091
:1007180000245C62A14B87F824404FF4CB72214639
:1007280007F128001C60C7E9074404F0AFF9397ED7
:100738004B00073303F47E73ADEB030D6A460029C3
:1007480033D0974EDFF868B2DFF87082954D0DF11F
:100758000103BB605B469346324646469046FB60C3
:10076800914BAB604FF00003AB814FF400732B61EA
:100778008E4B6B60BB68797E0BF814402E6003F8D3
:100788001410C5F814800BEB4401284600F0E0FA79
:10079800397EFB680134A14243F8040B06F13806A0
:1007A80005F1180508F50078D9D8012000F0F2FA0B
:1007B800504601F0A5FD794A01234FF47A70136081
:1007C80000F0E8FA504601F0D3FD3B7E002B3FF4E1
:1007D80067AF774D002455F8040B00F0CFFA3B7E45
:1007E8000134A342F7D8002B3FF45AAF6A4D0024D6
:1007F80006E03B7E0134A34205F5A0757FF650AFB5
:100808007A7E2B469200002107F1280000F018FAA2
:100818000028EED14FF47A734FF4CB7207F1280118
:10082800484601F0B7FFE4E74FF4DC5200215A488C
:1008380004F02CF9DAF8003000245C62574B87F892
:1008480024404FF4CB72214607F128001C60C7E909
:10085800074404F01BF9387E400004F04FF80646C0
:10086800544800F09DFA544B18603B7E002B32D060
:10087800DFF82C81DFF838B1504B4A4D721CBA6052
:100888005A46B346464698464D4BAB604FF0000378
:10089800AB814FF400732B614A4B6B60BB68797E68
:1008A8000BF81440C5F8008003F814106E610BEBC8
:1008B80044012846FA6000F04BFA397EFA680134A0
:1008C800A14242F8040B08F1380805F1180506F5AD
:1008D8000076D9D85E46504601F012FD2F4A012312
:1008E8004FF47A70136000F055FA304604F00EF8B1
:1008F800504601F03DFD3B7E4BB12D4D002455F88F
:10090800040B00F03BFA3B7E0134A342F7D82A4B94
:10091800186800F069FA3B7E002B3FF469AD1E4D64
:10092800002406E03B7E0134A34205F5A0757FF65E
:100938005FAD7A7E2B469200022107F1280000F075
:100948007FF90028EED14FF47A734FF4CB7207F198
:100958002801484601F01EFFE4E74FF47A734FF48C
:10096800CB7207F12801484601F014FFE7E54FF480
:100978007A734FF4CB7207F12801484601F00AFF59
:10098800D2E54FF47A734FF4CB7207F12801484649
:1009980001F000FFDDE500BF9C3500209835002000
:1009A800640800205406002095030008744B0008D2
:1009B800643400200C0000201C5100208401002019
:1009C800D10A0008984B00082DE9F843184C07781D
:1009D800236823B900F0D8F92368002BFAD0DFF890
:1009E8005890DFF85880134D4C460026D8F8003050
:1009F800596A44F8041B06E0D9F880320133C9F873
:100A0800803254F8041C28684FF0FF3200F0FCF9DB
:100A18000028F1D1013600F0B7F9B742E6DC42F21E
:100A2800107000F0B7F942F2107000F0B3F9F6E771
:100A380098350020903500209C3500204435002052
:100A48002DE9F0411C4C0778236884B023B900F0E5
:100A58009BF92368002BFAD0184E194CDFF86480F4
:100A6800002506E0D4F8C0330133C4F8C033BD42D2
:100A780018DA31684FF0FF3201A800F0F3F9019B52
:100A8800102BEFD1029A54F825309A42EAD1D8F8BF
:100A980000305A6A05F15003013544F8232000F06C
:100AA80073F9E4E742F2107000F074F942F2107042
:100AB80000F070F9F6E700BF983500209035002067
:100AC8009C350020443500202DE9F041164C06786D
:100AD800236847782BB9012000F05CF92368002BC4
:100AE800F9D0124DDFF84C8006EB8603104E05EB6B
:100AF800831500244FF0FF31306800F059F9D8F819
:100B080000305B6A45F8043F00F03EF90134306874
:100B180000F064F9A742EDD10A2000F03BF90A2061
:100B280000F038F9F8E700BF983500209835002024
:100B38001C51002044350020F8B51C4E0578336858
:100B480044782BB9012000F025F93368002BF9D03F
:100B5800174B05EB850C1F68164D7A6A4FEA8C1304
:100B68000121EA5005EB8C13786A58604FEA0C1C97
:100B78007A6A4B1C101A6344B0F5967F05EB83061E
:100B88000CEB010E07D902318C4245F82320726024
:100B980005DD1046ECE7A14245F82E20F9DB0A20D6
:100BA80000F0F8F80A2000F0F5F8F8E7983500208A
:100BB800443500209C350020F0B50478FF2C30D156
:100BC8004678042E36D88578042D30D803351B4F47
:100BD800054404464FF6FF7E14F801CB8CEA0E0C50
:100BE8005FFA8CFCA54237F81CC08CEA1E2EF3D1A4
:100BF800B0F8074064BAA4B2744515D10E70817874
:100C0800117061B1841C013B214614F801CF03F82F
:100C180001CF013992F800C0091A8C45F4DC002094
:100C2800F0BD4FF0FF30F0BD6FF00100F0BD6FF088
:100C38000300F0BD6FF00200F0BD00BFB44B000828
:100C4800B2F5C87F61D830B54FF0FF0C4170110A7A
:100C580080F800C08170C270002A50D0511E05294A
:100C680004D9011D5C1C0C1B022C29D8C11C03EBE8
:100C7800020C13F8014B01F8014F6345F9D1864680
:100C8800234C1EF8013B83F47F4383F0FF03DBB260
:100C9800033234F8131081F0FF01013202441EF8C8
:100CA800013B4B40DBB2724534F8133083EA112123
:100CB800F5D10B0A80F8943180F89511002030BDE9
:100CC8004FEA920E4FEA8E051C4601EB8E0E54F841
:100CD80004CB41F804CB7145F9D1AA42CFD022F018
:100CE80003015C5C41190C716C1C9442C7DA023533
:100CF8001C5D4C71AA42C2DD5B5D8B71BFE7044C81
:100D080000F1010E61460322C7E76FF00300704748
:100D1800B44B000808B5802383F31188054A53783B
:100D28000133DBB2537003F0D3FA02F00DFC00205C
:100D380008BD00BFB851002008B5044B012283F854
:100D4800582003F0F5FA002008BD00BFB851002074
:100D580030B5B0F90C2085B004460525D0E904303B
:100D6800CDE902510193D4E90113009020680332C0
:100D780002F060FD206805B030BD00BF08B502F084
:100D8800D3FD002008BD00BF08B502F01BFE0020FF
:100D980008BD00BF08B502F087FD002008BD00BFF0
:100DA80010B50446006802F0ADFE206810BD00BF13
:100DB80008B551B10B46013304D002F00FFF50B112
:100DC800002008BD02F0E8FEFAE702F0CBFE00289A
:100DD800F6D1812008BDC12008BD00BF08B502F0CA
:100DE80031FF002008BD00BF08B502F0A5FE0020B5
:100DF80008BD00BF10B50446D0E9012304210068EE
:100E080002F08EFF206810BD70B582B00191EAB182
:100E1800531C144614D0054602F0ECFC064606E0C6
:100E280002F042FD02F0E6FC831BA34216D801A99A
:100E3800284602F0E7FF03460120002BF0D102E02C
:100E480001A903F001F8002002B070BD01A902F069
:100E5800D9FF0028F7D0812002B070BDC12002B0B0
:100E680070BD00BF30B585B0102304460193084615
:100E7800154602A98AB101350CD002F099FF08B1D4
:100E88004023019304AB13E9070084E807002046D8
:100E980005B030BD02F070FFF4E702F04FFF002804
:100EA800F0D00195EEE700BF08B502F046FF00203C
:100EB80008BD00BF10B5A6B02422002107A803F082
:100EC800E5FD0021582210A8CDE90111CDE9031153
:100ED800059103F0DBFD01221023CDE909234FF42E
:100EE80000430222CDE90C2302244FF4E01306A8A4
:100EF80006940E9300F0D4F908B172B6FEE70F22FB
:100F08000346019201A84FF480622146CDE90332DD
:100F18000593029400F08CFC034608B172B6FEE714
:100F2800054A109210A813931E9300F0DBFD08B138
:100F380072B6FEE726B010BD0200100070B500249E
:100F4800ADF5066D00F088F9FFF7B4FFCDE9184458
:100F5800CDE91A44514B1C945A6942F400225A6153
:100F68005A6902F400220092009A5A6942F48002F7
:100F78005A615A6902F480020192019A5A6942F44C
:100F880000325A615A6902F400320292029A5A698E
:100F980042F480225A615B6903F48023039322465A
:100FA80020214FF09040039B01F0B2F84FF400521B
:100FB8004FF404133A481A9418A9CDE918232025A8
:100FC80000F0D8FE012318A94FF09040CDE918533E
:100FD800CDE91A4400F0CEFE324833494FF41643A7
:100FE800C0E900130C23C0E90244C0E90443C0E986
:100FF8000644C0E9084401F0ABFF08B172B6FEE749
:101008002A4C0C904FF08043CDE91800CDE91A0026
:10101800CDE90A00C4E901002061A06123602046EF
:101028004FF0FF33E36001F0DFF808B172B6FEE776
:101038004FF4805318A92046189301F0EBF908B132
:1010480072B6FEE70A900C900AA9204601F04CFB04
:10105800064608B172B6FEE7204601F051F9294666
:101068004FF0904001F05AF8FFF754FE104B114A28
:1010780006920AA9CDE904134FF400633146089398
:1010880004A818AB0993ADF81C60FFF761FE0A4B82
:101098001860FFF751FE03F0EDFB00BF001002409F
:1010A80000080048BC3400200044004044350020BB
:1010B800A84B0008E903000894350020034B026898
:1010C8009A4200D0704700F0D9B800BF002C014008
:1010D800FEE700BFFEE700BFFEE700BFFEE700BF78
:1010E800FEE700BF704700BF014801F045BA00BFE6
:1010F800205100200B4B9A6942F001029A619A69CB
:1011080082B002F001020092009ADA6942F080523D
:10111800DA61DB6903F080530193019B072002B079
:1011280001F006B8001002400368B3F1804F00D008
:10113800704703F5043382B0DA6942F00102DA61DC
:10114800DB6903F001030193019B02B0704700BF04
:1011580000B51B4A016889B000239142CDE90233EA
:10116800CDE90433069302D009B05DF804FB03F11E
:10117800804303F504339FED107BDA6942F40032B3
:10118800DA61DA6902F400320092009A5A6942F48C
:1011980000325A615B6903F40033019302A9072303
:1011A8004FF090408DED027B019A069300F0E2FD2E
:1011B80009B05DF804FB00BF0C000000020000004D
:1011C800004400401F4B70B59A691F4C42F40062FE
:1011D8009A619B6988B003F4006301A902930646EB
:1011E80003A8029B00F05CFC00F042FC174A184977
:1011F800A2FB00239B0C013B0022C4E900132046FC
:1012080040F2E7332261A260A261E36000F0ECFFE4
:10121800054610B1284608B070BD204601F0BCF85C
:1012280005460028F6D1192000F0D0FF0F2E01D96D
:101238000125EFE72A463146192000F08BFF054BC0
:101248001E60E7E7001002402051002083DE1B43A8
:10125800002C014014000020074A08B5136843F029
:1012680010031360032000F063FF0020FFF7AAFFBC
:10127800FFF740FF002008BD00200240034A044B4E
:1012880011681B780B441360704700BF6C51002035
:1012980010000020014B1868704700BF6C510020F7
:1012A800002800F0C1822DE9F0430368DF0783B00E
:1012B80004463BD5B7494A6802F00C02042A00F0FC
:1012C8004D814A6802F00C02082A00F040816368E8
:1012D800B3F5803F00F05781002B00F08681B3F50D
:1012E800A02F00F09482AB4B1A6822F480321A6067
:1012F8001A6822F480221A60FFF7CCFFA54F054632
:101308004FF40038012605E0FFF7C4FF401B6428AE
:1013180000F2678198FAA8F33A6898FAA8F3B3FA42
:1013280083F306FA03F31342EED023689E073FD5F2
:10133800984A516811F00C0F00F0CE80516801F006
:101348000C01082900F0C180E268002A00F09C81A5
:10135800012595FAA5F3B3FA83F303F1845303F552
:1013680084139B008B4F1D60FFF794FF4FF002081A
:10137800064605E0FFF78EFF801B022800F2318148
:1013880098FAA8F33A6898FAA8F3B3FA83F305FA37
:1013980003F31342EED03968F82292FAA2F22369D5
:1013A800B2FA82F2934021F0F80213433B602368BB
:1013B8001D0729D4580753D5764BDA69D10000F1B7
:1013C800C480DA6942F08052DA61DB6903F0805345
:1013D8000193019B0125704E3368DA0540F1F180D5
:1013E800A368012B00F07481002B00F01F81052BEE
:1013F800684B1A6A00F0AC8122F001021A621A6A7C
:1014080022F004021A6268E16269002A77D0012694
:1014180096FAA6F2614BDFF87C81B2FA82F21344A5
:101428009B0002251E60FFF735FF074605E0FFF722
:1014380031FFC01B022800F2D48095FAA5F395FA73
:10144800A5F395FAA5F3D8F8242095FAA5F3B3FAED
:1014580083F306FA03F31342E9D023685807ABD4A1
:10146800A36973B34B4D6A6802F00C02082A00F0B6
:101478005781022B4FF0807300F0728193FAA3F327
:10148800B3FA83F303F1845303F584139B0000221A
:101498001A60FFF7FFFE4FF000770446012605E0CB
:1014A800FFF7F8FE001B022800F29B8097FAA7F3CB
:1014B8002A6897FAA7F3B3FA83F306FA03F31342F9
:1014C800EED1002003B0BDE8F083526802F4C032C8
:1014D800B2F5004F7FF438AF022292FAA2F12D49FB
:1014E800086892FAA2F20121B2FA82F201FA02F233
:1014F800024255D0E2688A4252D00120E2E7012731
:1015080097FAA7F1254BDFF88C80B1FA81F10B44EB
:101518009B0002251A60FFF7BDFE064604E0FFF7B0
:10152800B9FE801B02285CD895FAA5F395FAA5F3B5
:1015380095FAA5F3D8F8242095FAA5F3B3FA83F31E
:1015480007FA03F31342EAD187E7002543E74A681D
:1015580002F4C032B2F5803F7FF4B9AE4FF40032E6
:1015680092FAA2F10B49086892FAA2F20121B2FAA2
:1015780082F201FA02F202423FF4D8AE6268002A0F
:101588007FF4D4AEB9E7034A136843F48033136099
:10159800B2E600BF001002400070004020819010A9
:1015A800A24DF821286891FAA1F12269B1FA81F1D6
:1015B80020F0F8008A4002432A601D077FF5FAAE42
:1015C80022E7336843F480733360FFF763FE07460E
:1015D8003368DB053FF504AFFFF75CFEC01B6428EA
:1015E800F6D9032003B0BDE8F083904D2B6823F4AF
:1015F80080332B602B6823F480232B60FFF74AFE8F
:101608004FF400380646012704E0FFF743FE801B2D
:101618006428E6D898FAA8F32A6898FAA8F3B3FADF
:1016280083F307FA03F31342EFD17EE67F4E336A62
:1016380023F001033362336A23F004033362FFF7B4
:1016480029FE4FF0020907464FF0010806E0FFF7B0
:1016580021FE41F28833C01B9842C2D899FAA9F3F7
:1016680099FAA9F3326A99FAA9F3B3FA83F308FA53
:1016780003F31342EBD1002D3FF4F2AE6B4AD3696A
:1016880023F08053D361EBE6012696FAA6F3B3FA6A
:1016980083F303F1845303F584139B00634F1A60AB
:1016A800FFF7F8FD4FF00208054604E0FFF7F2FDEA
:1016B800401B022895D898FAA8F33A6898FAA8F334
:1016C800B3FA83F306FA03F31342EFD123686FE604
:1016D800564A136A43F001031362FFF7DBFDDFF894
:1016E8004C8106464FF00209012707E0FFF7D2FDBB
:1016F80041F28833801B98423FF673AF99FAA9F3F9
:1017080099FAA9F3D8F8202099FAA9F3B3FA83F340
:1017180007FA03F31342E9D0002D3FF4A1AEADE779
:10172800012B3FF4EAAE6A68E169EB6A02F4C03063
:1017380088427FF4E2AE216A02F470128A427FF492
:10174800DCAE606A03F00F03181A18BF0120B9E66F
:1017580042F004021A621A6A42F001021A62BCE7F5
:1017680093FAA3F3B3FA83F303F1845303F58413D1
:101778009B0000221A60FFF78DFD4FF000780646A7
:10178800012705E0FFF786FD801B02283FF629AFF9
:1017980098FAA8F32A6898FAA8F3B3FA83F307FA31
:1017A80003F31342EED1EB6A626A23F00F0313438B
:1017B800EB62D4E907136A680B4322F476121343E9
:1017C8006B604FF0807393FAA3F3B3FA83F303F1DA
:1017D800845303F584139B00144E1F60FFF75AFDD2
:1017E8004FF000770446012505E0FFF753FD001B85
:1017F80002283FF6F6AE97FAA7F3326897FAA7F3EE
:10180800B3FA83F305FA03F31342EED059E603F172
:101818008043A3F53C331A6842F480221A601A68A0
:1018280042F480321A6067E50120704700100240D8
:10183800002800F0AF80614A136803F007038B4269
:101848002DE9F0410D4604460CD2136823F0070336
:101858000B431360136803F007038B4202D0012087
:10186800BDE8F0812368980706D55549A0684A68FD
:1018780022F0F00202434A60D9072DD56268012A96
:1018880000F08A80022A0CBF4FF00073022393FAFB
:10189800A3F14B49086893FAA3F30121B3FA83F340
:1018A80001FA03F30342DAD0454E736823F00303C9
:1018B80013437360FFF7EEFC41F28838074604E0F3
:1018C800FFF7E8FCC01B404576D87368626803F0F0
:1018D8000C03B3EB820FF3D1384A136803F0070304
:1018E800AB4209D9136823F007032B43136013682D
:1018F80003F00703AB42B2D123685A0706D5304933
:10190800E0684A6822F4E06202434A601B0707D590
:101918002B4A2169536823F4605343EAC103536097
:10192800274A536803F00C01082917D02549244B8E
:10193800F0225B6892FAA2F2B2FA82F203F0F003A4
:10194800214C2248D340224AE35C006821FA03F381
:101958001360FFF737FC0020BDE8F0814FF47010EA
:1019680090FAA0F00F21D26AB0FA80F091FAA1F1B2
:1019780003F47013C3401748174CC05C114BB1FAFD
:1019880081F102F00F02CA40A25CB3FBF2F300FB44
:1019980003F1CCE7012070474FF4003393FAA3F129
:1019A8000749096893FAA3F3B3FA83F302FA03F336
:1019B8000B427FF479AF52E7032051E70020024041
:1019C8000010024000127A00DC4D000814000020CC
:1019D80018000020C44D0008B44D0008144A53688C
:1019E80003F00C01082901D01248704710B44FF4D5
:1019F800701090FAA0F00F21D26AB0FA80F091FA34
:101A0800A1F103F47013C3400B480C4C10F803C049
:101A18000848B1FA81F102F00F0222FA01F3E35CFF
:101A28005DF8044BB0FBF3F00CFB00F0704700BF0F
:101A38000010024000127A00C44D0008B44D00089E
:101A4800084B4FF4E0625B6892FAA2F2B2FA82F2B3
:101A580003F4E06304490548D3400068CB5CD840F0
:101A6800704700BF00100240D44D00081800002045
:101A7800084B4FF460525B6892FAA2F2B2FA82F213
:101A880003F4605304490548D3400068CB5CD84050
:101A9800704700BF00100240D44D00081800002015
:101AA8000E4B0F2202605A6802F0030242605A6825
:101AB80002F0F00282605A6802F4E062C2605B6879
:101AC800DB0810B403F4E063054C036123685DF898
:101AD800044B03F007030B60704700BF001002407F
:101AE800002002402DE9F0430368D90383B004467F
:101AF80040D59D4BDA69D20040F1F5809B4D2B68AB
:101B0800DF054FF0000640F1FE80DFF85C82616877
:101B1800D8F8203013F4407320D001F440729A4270
:101B28001CD0D8F820104FF4803321F4407093FA79
:101B3800A3F28F4FB2FA82F23A449200012515605F
:101B480093FAA3F3B3FA83F33B449B000022C9073B
:101B58001A60C8F8200000F1EA806168824A136AB6
:101B680023F440730B4313621EB1D36923F08053EF
:101B7800D3612368DA0706D57B49A0680A6B22F08F
:101B8800030202430A639F0706D57749E0680A6B98
:101B980022F4403202430A635E0706D5724920697F
:101BA8000A6B22F4402202430A639D0606D56E4959
:101BB800E0690A6B22F0100202430A63980306D513
:101BC8006949606D4A6822F4800202434A605906F6
:101BD80006D56549206A0A6B22F0200202430A638F
:101BE8005A0306D56049606A0A6B22F04002024334
:101BF8000A631F0706D55C4960690A6B22F4401224
:101C080002430A63DE0606D55749A0690A6B22F427
:101C1800400202430A639D0506D55349206B4A6872
:101C280022F4000202434A60180606D54E49A06A0B
:101C3800CA6A22F4F8720243CA62D90506D54A492B
:101C4800E06ACA6A22F478520243CA62DA0406D504
:101C58004549606B0A6B22F4807202430A639F0451
:101C680006D54149206C0A6B22F4007202430A63CC
:101C7800DE0206D53C49A06B0A6B22F08072024353
:101C88000A639D0206D53849E06B0A6B22F00072A0
:101C980002430A63580206D53349606C0A6B22F482
:101CA800806202430A63190206D52F49A06C0A6BA9
:101CB80022F4006202430A63DA0106D52A49E06C7D
:101CC8000A6B22F4005202430A639B0103D40020EA
:101CD80003B0BDE8F083244A216D136B23F400435D
:101CE8000B431363F3E7DA69204D42F08052DA615F
:101CF800DB6903F080530193019B2B68DF054FF0EC
:101D080001063FF502AF2B6843F480732B60FFF7A1
:101D1800C1FA07462B68D8053FF5F7AEFFF7BAFAC0
:101D2800C01B6428F6D9032003B0BDE8F083FFF791
:101D3800B1FA4FF00209074699FAA9F399FAA9F3FB
:101D4800D8F8202099FAA9F3B3FA83F305FA03F334
:101D580013427FF402AFFFF79DFA41F28833C01BAC
:101D68009842E9D9DFE700BF001002400070004048
:101D7800008190100B68002B00F0A7812DE9F04F2F
:101D8800B0F1904F85B04FF000024FF0010B00F01A
:101D9800E780DFF868E30093009B0BFA02FC1CEA7B
:101DA800030A00F02D814D6805F003075400032352
:101DB80007F1FF3803FA04F6B8F1010F6FEA0606D7
:101DC80040F22781032F40F0878107FA04F407685F
:101DD8003E40344315F4403F046000F01181C44E86
:101DE800B46944F00104B461B46904F001040394D3
:101DF800039C22F0030404F1804402F003070F233C
:101E080004F58034BF0003FA07FCBA4BA668984271
:101E180026EA0C0600F04781B74B984200F0C480D0
:101E2800DFF8DCC2604500F04A81DFF8D8C26045BF
:101E380000F04C81DFF8D0C2604500F03A81DFF84D
:101E4800CCC260450CBF4FF0060C4FF0070C0CFAE3
:101E580007F73E43ADE0D0F80890CE680AEA0909D2
:101E680006FA07F848EA0908C0F80880D0F804809C
:101E780028EA0E08C5F3001E0EFA02FE4EEA080E06
:101E8800C0F804E0D0F80C808E680AEA080806FA60
:101E980007FE4EEA080E022CC0F80CE019D14FEAF2
:101EA800D20E0E694FEA8E0E02F007080EF1904E20
:101EB8004FEA880806FA08F6DEF8209000960F2602
:101EC80006FA08F8009E29EA080946EA0908CEF841
:101ED8002080BC40076807EA0A073C4315F4403FE6
:101EE800046039D0824FBC6944F00104BC61BC690C
:101EF80004F001040394039C22F0030404F18044D9
:101F080004F5803402F00307D4F808E00F26BF0078
:101F180006FA07F72EEA0707A760784CEE02A468CE
:101F28006FEA0C0700F1B3803C40744EB460F4686B
:101F3800AE0200F1B5803C40704EF4607468AE03A8
:101F480000F1AB803C406D4EED037460346800F1E5
:101F5800A1803C40694D2C60013233FA02F455D01F
:101F68000BFA02FE13EA0E0CF6D04D685700032652
:101F780006FA07F805F003046FEA080A04F1FF38C7
:101F8800B8F1010F7FF667AF032CA2D04FF090484D
:101F98008E68D8F80C9006FA07FE0AEA09094EEA94
:101FA800090EC8F80CE094E74FF0020C0CFA07F79A
:101FB8003E43A660DEF808406FEA0A06EF0254BF07
:101FC80034404AEA0404CEF80840DEF80C40AB027C
:101FD80054BF34404AEA0404CEF80C40DEF804400A
:101FE800AF0354BF34404AEA0404CEF80440DEF894
:101FF8000040EB0354BF34404AEA0404CEF80040E2
:10200800009B013233FA02F47FF4C6AE05B0BDE896
:10201800F08FD0F80890CB6809EA060903FA04F8AB
:1020280048EA0908C0F80880D0F804808B6828EAD4
:102038000C08C5F3001C0CFA02FC4CEA080CC0F8AA
:1020480004C0D0F80C8003FA04FC08EA06084CEA3D
:10205800080C022FC0F80CC07FF4B7AE0B694FEA2A
:10206800D20802F0070C00EB88084FEA8C0C03FA40
:102078000CF3D8F8209001930F2303FA0CFC019B72
:1020880029EA0C0943EA090CC8F820C09DE644EA8D
:102098000C044AE74CEA04045CE744EA0C0452E7FF
:1020A8004CEA040448E74FF0010C0CFA07F73E43EA
:1020B8007FE74FF0050C0CFA07F73E4379E74FF03E
:1020C800030C0CFA07F73E4373E770474FF0040C14
:1020D8000CFA07F73E436CE7D0F80C808B6808EAE7
:1020E800060803FA04FC4CEA080CC0F80CC06CE6BD
:1020F80000100240000400480008004800040140A5
:10210800000C00480010004800140048001800485F
:102118000AB1816170478162704700BF436901EA73
:10212800030221EA030141EA02418161704700BFCD
:102138000749CA6803024FF6FF0003F4E063024050
:10214800134343F0BF6343F40033CB60704700BFD1
:1021580000ED00E01B4BDB68C3F3022300B5C3F1BD
:10216800070EBEF1040F03F1040C28BF4FF0040E54
:10217800BCF1060F1CD9A3F1030C4FF0FF3303FA8F
:102188000CF322EA03024FF0FF3303FA0EF321EABD
:10219800030303FA0CF313431B010028DBB20ADB29
:1021A80000F1604000F5614080F800335DF804FB01
:1021B80000229446E7E7044A00F00F000244137631
:1021C8005DF804FB00ED00E0FCEC00E0002807DB14
:1021D8004109044A00F01F000123834042F82130DE
:1021E800704700BF00E100E0002800F0858038B5A6
:1021F80090F83D30044603F0FF02002B71D02268AE
:102208003E49022384F83D308A42136828D0B2F14F
:10221800804F54D0A1F594318A4250D001F58061A5
:102228008A424CD001F596318A4219D001F5E05125
:102238008A4215D0A1F580518A4257D001F58061B4
:102248008A4253D001F580618A424FD0A5696168FE
:10225800E06823F080032B431360D062916212E0A0
:10226800A068216923F07003034323F440730B43F0
:10227800A16923F080030B431360E368D3626368AA
:102288009362636913630123536184F8483084F8C7
:102298003E3084F83F3084F8403084F8413084F888
:1022A800423084F8433084F8443084F8453084F868
:1022B800463084F8473084F83D30002038BDA168A6
:1022C800206923F070030B4323F44073A16903438F
:1022D80023F08003E0680B4361681360D062916269
:1022E800D1E780F83C20FEF71FFF88E72069A16945
:1022F80023F440730343BCE701207047002C0140DE
:1023080090F83D30012B23D10368174A02219342EC
:1023180080F83D101ED0B3F1804F1BD0A2F5943247
:10232800934217D002F58062934213D002F5963299
:1023380093420FD002F5406293420BD002F58052CF
:10234800934207D01A6842F001021A6000207047D1
:10235800012070479968054A0A40062AF6D0B2F566
:10236800803FEFD100207047002C0140070001009A
:102378000368196A41F21112114208D1196A40F230
:102388004442114203D11A6822F001021A60012363
:1023980080F83D300020704790F83D30012B26D161
:1023A80003681949022280F83D20DA688B4242F01E
:1023B8000102DA601DD0B3F1804F1AD0134A93425C
:1023C80017D002F58062934213D002F596329342F9
:1023D8000FD002F5406293420BD002F5805293422F
:1023E80007D01A6842F001021A60002070470120E5
:1023F80070479968064A0A40062AF6D0B2F5803F27
:10240800EFD10020704700BF002C014000040040BD
:102418000700010090F83C20012A6CD0034630B434
:1024280002680224012083F83D4083F83C00956847
:102438004C4C2C4094600C68602C76D011D8402C01
:102448005BD02ED8202C04D000F2888034F0100104
:102458001FD1916821F07001214341F0070191607B
:1024680016E0B4F5805F13D0B4F5005F33D0702C5C
:102478000FD1D1E9015094682843CD6824F47F41F5
:1024880040EA052008439060916841F07701916027
:1024980000200121002283F83D1083F83C2030BC45
:1024A8007047502CF5D14868CC68116A21F00A01B0
:1024B8000843116A21F001011162916921F0F001CC
:1024C80041EA041191611062916821F0700141F0B4
:1024D80057019160DCE7D1E9015094682843CD6841
:1024E80024F47F4140EA052008439060916841F454
:1024F80080419160CCE7022070474868CC68116A37
:1025080021F00A010843116A21F001011162916961
:1025180021F0F00141EA041191611062916821F003
:10252800700141F047019160B2E74C68CD68116ACB
:1025380021F0100111629069116A20F4704021F0B5
:10254800A00141EA041140EA0530906111629168E6
:1025580021F0700141F06701916099E7302C3FF458
:1025680078AF96E78800FEFF704700BF704700BF4E
:10257800704700BF704700BF03681A69910710B51C
:10258800044602D5DA68920768D41A69520702D558
:10259800DA6850074FD41A69110702D5DA681207AA
:1025A80037D41A69D00602D5DA68D1061ED41A695A
:1025B800D20702D5DA68D00769D41A69110602D59C
:1025C800DA6812066BD41A69D00502D5DA681106E2
:1025D8006DD41A69520602D5DA6850066FD41A69A2
:1025E800910602D5DA68920649D410BD6FF0100141
:1025F800082219612277DB6913F4407F20466FD1E6
:10260800FFF7B2FF2046FFF7B3FF002223682277C7
:10261800CDE76FF00801042219612277DB699B0777
:1026280020465AD1FFF7A0FF2046FFF7A1FF00225E
:1026380023682277B5E76FF0040102221961227737
:102648009B6913F4407F204644D1FFF78DFF204655
:10265800FFF78EFF0022236822779CE76FF00201C4
:102668000122196102779B69990730D1FFF77CFF36
:102678002046FFF77DFF00222368227785E76FF069
:10268800200220461A61BDE8104000F07DB86FF0C6
:1026980001021A612046FEF711FD23688DE76FF0ED
:1026A80080021A61204600F071F823688BE76FF406
:1026B80080721A61204600F06BF8236889E76FF092
:1026C80040021A612046FFF755FF236887E7FFF7A6
:1026D8004DFFD0E7FFF74AFFBCE7FFF747FFA6E744
:1026E800FFF744FF91E700BF90F83C30012B45D03D
:1026F80070B40246224E0068022382F83D30B04290
:1027080043680D6884681BD006F50066B0422CD07B
:1027180006F5E056B04213D023F070032B43B0F116
:10272800804F436015D18B6824F080041C4384607B
:102738000020012382F83D3082F83C0070BC7047CD
:102748004E6823F47003334323F070032B43436034
:10275800E9E70C4B9842E6D003F580639842E2D053
:1027680003F59C339842E3D1DDE74E6823F4700308
:10277800334323F070031D434560D4E702207047BC
:10278800002C014000040040704700BF704700BFA4
:10279800704700BF2DE9F8430446C06F202840F079
:1027A8009A800D4609B1164612B90120BDE8F88392
:1027B8001F464FF000092123C4F88490E367FEF711
:1027C80069FDA368A4F85060B3F5805F8046A4F85B
:1027D800526000F08380B4F8523022689BB2002B1C
:1027E80000F083807E1C2AD1D3691806FCD5002D01
:1027F8006CD015F8013B1385B4F85230013B9BB2FD
:10280800A4F85230B4F852309BB2002BECD1D36903
:102818005E06FCD52023E3670020C7E7002D00F003
:10282800A68015F8013B1385B4F85230013B9BB2E2
:10283800A4F85230B4F852309BB2002B57D0D36969
:102848001906EBD4FEF726FDA0EB08039F4238D308
:10285800002F36D02368196849071A46EFD5D96979
:102868000E0700F19280D9690805E8D54FF4006198
:10287800196253E8001F21F4907143E8001038B141
:1028880053E8002F22F4907243E800210029F7D181
:1028980003F1080252E8002F22F0010203F10800B8
:1028A80040E800210029F3D1226E012A64D00023D8
:1028B8002022C4F88020A366236684F87830C4F800
:1028C80084202023E3670320BDE8F88339F8023B1E
:1028D800C3F308038FE70220BDE8F8832369002BC0
:1028E8007FF479AFA9461D4675E77B1C8FD0D36965
:1028F8005B068FD4FEF7CEFCA0EB08039F42E0D323
:10290800002FDED0236819684D071A46EFD5D9691C
:10291800080768D4D9690905E9D54FF40061196237
:1029280053E8001F21F4907143E8001038B153E8D0
:10293800002F22F4907243E800210029F7D103F117
:10294800080252E8002F22F0010203F1080040E8D3
:1029580000210029F3D1226E012AA8D153E8002FC3
:1029680022F0100243E800210029F7D19FE739F847
:10297800023BC3F3080356E753E8002F22F0100286
:1029880043E800210029F7D191E708221A6253E8A9
:10299800002F22F4907243E800210029F7D103F1B7
:1029A800080252E8002F22F0010203F1080040E873
:1029B80000210029F3D1226E012A0BD00023202107
:1029C8000822C4F88010A366236684F87830C4F817
:1029D800842076E753E8002F22F0100243E8002114
:1029E8000029F7D1EAE708221A6253E8002F22F4F7
:1029F800907243E800210029F7D103F1080252E858
:102A0800002F22F0010203F1080040E8002100290C
:102A1800F3D1226E012AD1D153E8002F22F01002FF
:102A280043E800210029F7D1C8E700BF2DE9F843A2
:102A38000446D0F88000202843D10D4609B1174636
:102A480012B90120BDE8F883002698462223C4F86D
:102A58008460C4F880302666FEF71CFCA4F8587021
:102A6800A4F85A70A768B7F5805F81462CD0002F6C
:102A780040F098802369002B0CBFFF267F26B4F80E
:102A88005A30A4F85C609BB2002B00F08580B8F146
:102A9800FF3F226832D1D3699906FCD5938C334025
:102AA800002D6BD005F8013BB4F85A30013B9BB2BE
:102AB800A4F85A30B4F85A309BB2002B6CD0226874
:102AC800E9E70220BDE8F8832369002B75D12F467A
:102AD80040F2FF161D46D2E7002D71D0938C33408B
:102AE80005F8013BB4F85A30013B9BB2A4F85A30C0
:102AF800B4F85A309BB2002B4ED02268D3699B069B
:102B0800EAD4FEF7C7FBA0EB0903984530D3B8F128
:102B1800000F2DD0226813685B07EFD5D36918071B
:102B280067D4D3691905E9D54FF40063136252E8F5
:102B3800003F23F4907342E800310029F7D102F1F5
:102B4800080353E8003F23F0010302F1080040E8BE
:102B580000310029F3D1236E012B41D0002320221C
:102B6800C4F88020A366236684F87830C4F88420EB
:102B78002023C4F880300320BDE8F88327F8023BFF
:102B8800B4F85A30013B9BB2A4F85A30B4F85A3022
:102B98009BB2002B7FF47FAF2023C4F88030002045
:102BA800BDE8F883B7F1805F37467FF468AF2369E3
:102BB800002B14BF3F267F2661E73746FF265EE7D6
:102BC800938C334027F8023BB4F85A30013B9BB250
:102BD800A4F85A30B4F85A309BB2002B8ED1DBE7F8
:102BE80052E8003F23F0100342E800310029F7D1F2
:102BF800B4E70823136252E8003F23F4907342E8D5
:102C080000310029F7D102F1080353E8003F23F00F
:102C1800010302F1080040E800310029F3D1236ED6
:102C2800012B0BD0002320210822C4F88010A366B2
:102C3800236684F87830C4F8842099E752E8003F86
:102C480023F0100342E800310029F7D1EAE700BF7A
:102C5800436ADA0710B406D50168846A4A6822F420
:102C6800003222434A609C0706D50168C46A4A6854
:102C780022F4803222434A60590706D50168046B62
:102C88004A6822F4802222434A601A0706D501685E
:102C9800446B4A6822F4004222434A60DC0606D5A7
:102CA8000168846B8A6822F4805222438A609906FC
:102CB80006D50168C46B8A6822F4005222438A60F0
:102CC8005A0609D50168046C4A6822F48012224326
:102CD800B4F5801F4A600BD01B0606D50268816CCC
:102CE800536823F400230B4353605DF8044B70478B
:102CF8004A68446C22F4C00222434A60ECE700BFF1
:102D080038B500230446C0F88430FEF7C3FA2268B9
:102D180013681B0705460ED4136859072FD40023E0
:102D28002022E2671846C4F88020236663660023E1
:102D380084F8783038BDD3699802EDD40CE019686E
:102D480049071A4605D5D969080749D4D969090533
:102D580074D4DB699802DFD4FEF79CFA431BB3F105
:102D6800007F2368EBD353E8002F22F0800243E86A
:102D780000210029F7D12023E3670320D7E7D3698F
:102D88005B02CCD40DE01A68500707D5DA69110741
:102D980000F18280DA69120500F1AC80DB695B0220
:102DA800BDD4FEF777FA431BB3F1007F2368EAD35B
:102DB80053E8002F22F4907243E800210029F7D14C
:102DC80003F1080252E8002F22F0010203F1080083
:102DD80040E800210029F3D12023C4F88030CCE753
:102DE80008221A6253E8002F22F4907243E8002167
:102DF8000029F7D103F1080252E8002F22F001025E
:102E080003F1080040E800210029F3D1226E012ACD
:102E18000BD0002220200821C4F88000A266226678
:102E280084F87820C4F884109DE753E8002F22F036
:102E3800100243E800210029F7D1EAE74FF40062C5
:102E48001A6253E8002F22F4907243E80021002907
:102E5800F7D103F1080252E8002F22F0010203F132
:102E6800080040E800210029F3D1226E012A0AD087
:102E780000222021C4F88010A266226684F87820F7
:102E8800C4F884106FE753E8002F22F0100243E8DB
:102E980000210029F7D1EBE708221A6253E8002F36
:102EA80022F4907243E800210029F7D103F10802C7
:102EB80052E8002F22F0010203F1080040E8002147
:102EC8000029F3D1226E012A0BD0002220200821EC
:102ED800C4F88000A266226684F87820C4F88410BA
:102EE80066E753E8002F22F0100243E8002100298A
:102EF800F7D1EAE74FF400621A6253E8002F22F490
:102F0800907243E800210029F7D103F1080252E842
:102F1800002F22F0010203F1080040E800210029F7
:102F2800F3D1226E012A0AD000222021C4F8801091
:102F3800A266226684F87820C4F8841038E753E83B
:102F4800002F22F0100243E800210029F7D1EBE717
:102F5800002800F0BB8038B5C36F0446002B34D07E
:102F68002368206965692422E2671968A26821F04C
:102F78000101196002432A43E0691D686A49024356
:102F880029400A431A605A68E168256A22F44052C7
:102F98000A435A609968A26921F430612A430A43B6
:102FA80062499A608B4215D0614A934248D0614A7F
:102FB800934279D0604A934251D0604A93425ED09E
:102FC8000023C4E91A33012038BD80F87830FEF7B1
:102FD800BFF8C5E75A4B1B6B03F00303022B55D010
:102FE800032B47D0012B34D0B0F5004F00F08E8072
:102FF800FEF73EFD60B163684FF6EF7200EB5300D9
:10300800B0FBF3F0A0F110039342D9D82368D8603D
:10301800626A0023C4E91A33002A41D123685A6836
:1030280022F490425A609A6822F02A029A601A683A
:1030380042F0010220461A60BDE83840FFF760BE42
:103048003F4B1B6B03F44033B3F5003F1ED023D82E
:10305800B3B3B0F5004F63D0FEF7C0FCCAE7384BF6
:103068001B6B03F44013B3F5001F0FD0F0D9B3F571
:10307800401FA5D1B0F5004F41D03248BBE7304BD7
:103088001B6B03F44003B3F5000F3AD1B0F5004FC2
:103098001ED04FF40040AEE7B3F5403FEAD08FE7CB
:1030A8002046FFF7D5FDB9E7254B1B6B03F44023FA
:1030B800B3F5002FEAD0CBD9B3F5402FDAD07FE7AC
:1030C800B0F5004F29D0FEF7BBFC93E7012070470D
:1030D8004FF4803063684FF6EF7200EB5300B0FB9B
:1030E800F3F3A3F1100191423FF66AAF23F00F0208
:1030F800216892B2C3F342031343CB6088E71248B6
:10310800E8E7A5D9B3F5400FB4D059E7FEF7B0FC0E
:1031180000283FF47DAF4000DCE7FEF791FCF7E7BD
:10312800FEF75CFCF4E700BFF369FFEF00380140ED
:103138000044004000480040004C0040005000405F
:103148000010024000127A000024F400034AD2F86A
:10315800883043F47003C2F88830704700ED00E00F
:103168000F4A536803F00C03082B0AD00D4B0C4A86
:103178000D4852680D49C2F30312825CD3400B60BC
:10318800704753685168D16AC3F3834201F00F0155
:103198000232044B0131B3FBF1F302FB03F3E6E720
:1031A8000010024000127A00DC4D000818000020D0
:1031B8002DE9F84301F0B6F808B36648026802B38F
:1031C800654D2B68A3F117010A78C2B1634E6448B4
:1031D8003268002A3AD10468002C3CD000220A70D8
:1031E800604C614902600A6022680AB904E02268FA
:1031F80090470028FBDA2B68002203F8182CBDE85A
:10320800F8834FF0E023584FD3F8083D3A601B6825
:10321800564E03F8172C082703F8027C122703F8E8
:10322800037C03F8182C03F8162C5222504C03F890
:10323800012CA3F11502484D3260A3F1200222604F
:1032480001222B60A3F117010260BDE7013A326049
:10325800002AC0D1C2E713F8182CA3F11801EAB16B
:10326800DFF82081D8F80020B2B141480768087813
:10327800C0F108000744087810B90DE0D8F800201C
:1032880017F8010B90472B68013413F8182CE4B297
:103298009442A3F11801F1D300220A7013F8163CE6
:1032A80003F0FF02002BAAD1DFF8BC803260D8F807
:1032B80000309BB92F4B1A68002AA0D0802282F3D5
:1032C80011882D4C2268002A33D02C4B5B7803F0F0
:1032D800FF02002B93D182F3118890E7234B284AF1
:1032E8001B68204C12781A702268002A2FD003F12C
:1032F8000109012705E00137122F09F8010B04D055
:10330800226890470028F6DAFFB2802383F31188F9
:103318002B6803F8167C194B5B784FF47A7232608D
:1033280003F0FF020BB982F311880023C8F80030BC
:1033380065E7124A52780121216002F0FF010AB9BB
:1033480081F311881B6898470023236057E70127FA
:10335800DBE700BF84510020905100207851002005
:1033680070510020945100208C5100207C51002085
:10337800805100209851002074510020B85100203D
:10338800885100209C5100202DE9F843044600F0A4
:10339800C9FF002849D043490A68002A4DD0424D48
:1033A8002B68A3F117021278002A3ED013F8163CB6
:1033B800002B6ED1802383F311883C4E3368002B99
:1033C80060D13B4F012333607B7803F0FF020BB9D8
:1033D80082F31188374BDFF8F0901B68D9F800208A
:1033E8001C70002A5CD003F10108012406E00134B6
:1033F800122C08F8010B05D0D9F8002090470028B6
:10340800F5DAE4B2802383F311882B682A4A03F89B
:10341800164C7B784FF47A71116003F0FF020BB9F8
:1034280082F311880023336038E000F083FD01F057
:103438005DF8BDE8F84300F057BA4FF0E0231F4F9E
:10344800D3F8083D3A601B681A4E03F8172C082772
:1034580003F8027C122703F8037C03F8182C03F8FE
:10346800162C5222164803F8012CA3F115020E4D12
:103478003260A3F12002026001220A602B60A3F1EE
:10348800170290E70A4B5B7803F0FF020BB982F34F
:1034980011880A4A0B4B012111601C70BDE8F883A2
:1034A8000124AFE78451002090510020745100207E
:1034B800B85100207C510020785100208C51002008
:1034C800805100208851002094510020014B186041
:1034D800704700BF9C510020014B1860704700BF27
:1034E80098510020014B1860704700BF945100208C
:1034F8004FF0E02398697047024B586800F08060ED
:10350800704700BF00ED00E010B50E4C2378013382
:10351800DBB2237000F070FAFFF74AFE802383F3D2
:1035280011882378012B07D02378013BDBB20022D6
:10353800237082F3118810BD6368002BF4D0FCF768
:10354800BBFEF1E7B851002010B5802386B083F3A5
:103558001188214C63780133DBB26370FFF700FEFA
:103568001E4A1F4B1268A3FB02139B09013BB3F1D0
:10357800807F0AD24FF0E0211A484B61F02380F88F
:1035880023300020072388610B61164BE02183F864
:1035980023104FF47A70144B1449019202900022C0
:1035A80001A8CDE904138DF80C2000F0A1F810480B
:1035B800FFF78CFF0F48FFF78FFF0F48FFF792FFC9
:1035C8006378013BDBB26370637803F0FF020BB9E9
:1035D80082F3118806B010BDB851002018000020F1
:1035E800D34D621000ED00E001350008F934000801
:1035F800654700080548000857450008FEE700BF72
:10360800FFF7C2BE00F054B800F064B80C490D4A88
:103618000B6810B50C4C121B2BB11844904207D8FC
:103628000860184610BD094B0B6018449042F7D942
:1036380001F026FA0C2303604FF0FF33184610BD43
:10364800A051002000000120000400008054002048
:1036580008B501F015FA16230360FEE7DFF834D049
:10366800FFF774FD0C480D490D4A002302E0D458B9
:10367800C4500433C4188C42F9D30A4A0A4C0023B4
:1036880001E013600432A242FBD301F005F9FDF713
:1036980055FCFEE700000120000000206C0000201F
:1036A8004C4E0008700000207C540020FEE700000B
:1036B800064B1A6832B9EFF31181054A116080226E
:1036C80082F311881A6801321A607047A8510020E5
:1036D800A4510020044A1368013B13601BB9034B33
:1036E8001B6883F311887047A8510020A45100205B
:1036F80070B505460FCD1F4C26460FC6B0FBF1F23C
:103708002B6833606261034601464FF47A72E1B96F
:103718004FF47A71B1FBF2F1B3FBF2F2E261164AAF
:10372800A1611946C1B91449B1FBF2F1B3FBF2F238
:103738006262124A216210461946A1B9B0FBF2F042
:10374800B3FBF2F3A062E36270BDB2FBF1F001FBE0
:1037580010200A460146DAE7B2FBF1F001FB10201F
:103768000A460146DEE7B2FBF1F501FB15250A46DC
:103778002946E2E71852002040420F0000CA9A3B4F
:103788002DE9F041802383F31188154FDFF8548029
:10379800FB68D8E9044698473B69054698470346BD
:1037A800B0B9284698F8012002F0FF010AB981F360
:1037B8001188397A7A6911B9101A63EB0303A4FBEB
:1037C800024102FB0611201841EB0301BDE8F0811C
:1037D800FB68013446F1000698470023E2E700BF82
:1037E80018520020B8510020014BD86A704700BF1A
:1037F800B8510020014BD86A704700BFB85100206B
:1038080010B50B4B93F8582004462AB9FFF7ECFF84
:10381800001B0028FADB10BD802282F311889B6808
:10382800042283F83420BDE81040D86000F028BB9B
:10383800B85100202DE9F84F044689461746002163
:103848003822DDE90CB81D46DDE90A6A01F01EF9E7
:10385800C4E90477124B93F85C3084F8343006EBF3
:103868000A0323F00703A3F15802002184F836B0B5
:10387800C4F8249043F8581C6FF002035362094BB4
:103888001364D5644FF08073023553641565C2F82C
:10389800048020466260BDE8F84F00F0B3BB00BF6B
:1038A800B85100202B02000810B5041E06DDFFF7F2
:1038B8009BFF2044BDE81040FFF7A2BF10BD0000E9
:1038C80010B9034B986808B1406A704701487047BF
:1038D800B8510020F04D000808B9024B986890F8DC
:1038E80035007047B851002038B50E4C2378013B9D
:1038F800DBB22370237803F0FF0593B9636883B1C3
:10390800802383F3118863682BB101232046237039
:10391800FCF7C0FC2570637803F0FF020BB982F353
:10392800118838BDB851002038B5044600F002FBB4
:103938000CB9204B9C68204B1D68002D34D11F4BBF
:103948001B680BB120469847204600F063FF802390
:1039580083F31188A36813B1204600F0F3FA2046D8
:1039680000F0A5FB164B1A68A24204BF00221A6099
:10397800104B5A7802F0FF010AB981F31188DA690D
:10398800A24204BF9A69DA619A68A24208D18022E9
:1039980082F311889B68074800221A60FCF77AFCBA
:1039A800BDE83840FFF7A0BF6B68204698472D68F0
:1039B800C3E700BFB8510020B0510020AC5100202F
:1039C8004852002010B5802383F31188094CA3685E
:1039D80093F8352022B1002283F835200123237182
:1039E80000F04EFA637803F0FF020BB982F31188F6
:1039F80010BD00BFB8510020154B9A6B10B532B1FD
:103A0800012283F859205A715C6CECB910BDD3E9D6
:103A180004100131DA6A40F10000C3E90410196B9F
:103A28000132DA62521A002AA4BF01225A7193F8AD
:103A38005A20002AE8D0013AD2B283F85A20002A44
:103A4800E2D101221A71DFE7636898472468DCE74E
:103A5800B851002043682DE9F0410546CBB1D3E9C0
:103A68000416B14215D0154FFC6B4FF0000894B9FD
:103A7800B1420ED0802383F31188686800F017FBE9
:103A880068684146066100F0BDFA7B780BB984F39B
:103A98001188BDE8F081AC4204D06268934201D13C
:103AA80022680AB9A468E2E7D0681268D0F810C0A2
:103AB800B44584BF66468046F3E700BFB85100208E
:103AC800F8B50F4EF46B054600272CB9AB6813B157
:103AD8009B68F06B58B9F8BD237B33B16368AB4280
:103AE80003D12773204600F073FAA468EDE79842E3
:103AF80003D1BDE8F840FFF7ADBF8068EAE700BF33
:103B0800B8510020094B0A4A10B500211A6010224A
:103B1800044600F0BBFF00F00DFA064BDA6BA2601A
:103B2800DC63BDE81040FFF7DFBE00BFAC510020EA
:103B3800C93A0008B851002010B5044600F0FAF957
:103B4800074A52F83C3F1BB1A34205D19B6813605A
:103B5800BDE81040FFF7C8BE03F108029B68F2E712
:103B6800B851002010B5044600F0E4F9227B094B57
:103B78001AB161689A6891420AD19B686360237B95
:103B88000133DBB223730124FFF7AEFE204610BDDC
:103B98000024F9E7B851002038B5044600F0CAF906
:103BA800237B0D4D43B9AB6863600125EBB22373EA
:103BB800FFF79AFE284638BD6268AB689A4208D07B
:103BC8001021204600F070F9237B002BF8D1AB6858
:103BD8006360257B0135E9E7B851002070B50446DC
:103BE8000D4600F0A7F9237B154E1BB9B368636037
:103BF800012505E06268B3689A4206D1257B013544
:103C0800EBB22373FFF770FE12E0FFF7EDFD0544FA
:103C18002A461021204600F063F9B268D368EB1AEF
:103C2800002B07DC2046FFF715FFFFF75DFE002598
:103C3800284670BD237B002BEAD16260D8E700BF1D
:103C4800B851002010B5044600F074F9237B013BFD
:103C5800DBB22373237B2BB92046FFF7FBFE2046FC
:103C680000F0B6F9BDE81040FFF73EBE828A03694E
:103C780010B453434468013B23440A4413F8014FEA
:103C880001F8014B9142F9D10369C26801339342AB
:103C980028BF0023036183689A4283680A4A03F1B4
:103CA800FF338360537803F0FF0206D10BB982F328
:103CB80011885DF8044B00F08BB90BB982F31188B9
:103CC8005DF8044B704700BFB85100200369826853
:103CD8001A44C368934298BFD21A10B44368848ABE
:103CE80004FB023301391C4411F8012F03F8012B9E
:103CF800A342F9D18368013383608368012B03D120
:103D08005DF8044B00F064B9044B5B7803F0FF02E4
:103D18000BB982F311885DF8044B7047B851002045
:103D2800F8B504460D4616461F461822002100F035
:103D3800ADFE6760E660A582F8BD704713B58023C5
:103D4800044683F31188836843B90A4B5B7803F010
:103D5800FF020BB982F31188012009E0019100F0FC
:103D6800E9F820460199FFF781FFFFF7BDFD002024
:103D780002B010BDB851002037B50D46019000F0D3
:103D8800D9F8802383F311881C46019883683BB1D6
:103D98002946FFF76BFF03B0BDE83040FFF7A4BD2D
:103DA8004021019000F080F884F31188EDE70000CD
:103DB800F7B580230E4683F31188114FFC6A1D4620
:103DC800144483685BB1019000F0B4F8019831465F
:103DD800FFF74CFFFFF788FD002003B0F0BD224637
:103DE8004021019000F07CF8BB68DB68E31A002BE7
:103DF80003DD85F311880198E3E70120EDE700BFB3
:103E0800B851002013B50446019100F093F88023BF
:103E180083F31188A268E36801999A4208D2204680
:103E2800FFF754FF0024FFF75FFD204602B010BDE6
:103E3800044B5B7803F0FF020BB982F3118801246D
:103E4800F1E700BFB851002070B504460E4600F0F7
:103E580071F8802383F311881D46A268E3689A42AB
:103E680007D031462046FFF731FFBDE87040FFF725
:103E78003BBD3821204600F017F885F31188ECE7A0
:103E880038B5084C2378DDB20133DBB22046237005
:103E9800FCF700FA2570637803F0FF020BB982F390
:103EA800118838BDB85100201FB50C4A9368039398
:103EB800CDE90100802383F3118803680093C0F8DB
:103EC80000D00BB1C3F804D09368C3F808D083F8C6
:103ED8003410FFF7D5FF05B05DF804FBB85100209A
:103EE80030B5134B85B09C680394CDE9010080245C
:103EF80084F311889C68DD6AE260521B002A07DCA3
:103F08005B7803F0FF020BB982F3118805B030BD6E
:103F180003680093C0F800D00BB1C3F804D041F097
:103F28000401C4F808D084F83410FFF7A9FFEDE7BE
:103F3800B8510020024A13780133DBB2137070477E
:103F4800B85100208268D2E9003203B15A60136088
:103F5800002383607047000038B58368014623B1A9
:103F68001A4BDB6AC360FFF7EDFF91F8343003F0BA
:103F7800030381F834309BB9144CE2699AB9E161C2
:103F88002278012302F0FF055AB910482370FCF784
:103F980081F92570637803F0FF020BB982F3118869
:103FA80038BD6371F6E7086913699842E7D891420A
:103FB800E6D09842F4D10B461B68002BEAD01D6965
:103FC800A842E7D19A42F7D1D9E700BFB8510020FB
:103FD80038B50446802383F311881D4623683BB90E
:103FE800074B5B7803F0FF020BB982F3118838BDE9
:103FF8002368D868FFF7B0FF85F31188EEE700BFA4
:10400800B851002010B5FFF795FF026949B9154965
:1040180051F8183F33B11C69944203D919461B68FB
:10402800F8E70B6803600162086043B118621B6916
:1040380093420CBF90F83630002380F8353090F862
:1040480034305BB9802383F31188FFF785FF054B74
:104058005B7803F0FF020BB982F31188BDE81040CA
:10406800FFF742BCB851002070B5084E00F0E0FBE5
:10407800F36804465D6800F0DFFBF668421B2244E3
:10408800F06E2946BDE8704000F02ABCB851002007
:10409800054B596D19B19A6891620021D1621B6D67
:1040A80003B11847704700BFB8510020FEE7026A05
:1040B8000368136003B11A62704700002DE9F843E2
:1040C800824C0025012365702370802383F31188B7
:1040D800626B62B163780133DBB2637090476378D7
:1040E80084F85950013BC4E90D55DBB263700023D5
:1040F80083F31188A36853B19A6A42B1586803F1EF
:1041080028052B681B6898476D68002DF9D194F82D
:104118005B30002B34D0A36894F85A2083F83520FC
:104128002379002B2CD0802383F311880022A368E5
:10413800227182F3118803B31A68F2B11869116900
:1041480088421AD11146126812B11569A842F9D0ED
:10415800802282F31188E269186A93421A6808BFBC
:10416800E261026010620A6819621A6002B11362A1
:104178000B6091F8363081F83530002383F31188CD
:10418800E369B3B14FF08008002788F31188E56927
:1041980095B195F834607EB172072DD5EB68E26A67
:1041A8009A1A002A23DC2846FFF7D6FE95F8343001
:1041B80013BB802383F311880027DFF81091B846DA
:1041C800637903F0FF02002B4ED06771E36A03F1B5
:1041D8000043013B2363A36A0BB14846984788F321
:1041E8001188A5698026D5B986F31188E8E7226B7E
:1041F8009A1A002AB8BF236306F0FB06102E09D1CD
:10420800AB689B685B6893F834201AB91A692B6904
:104218009A42CED12B68E36187F31188B5E786F31C
:104228001188E3691BB12A691B699A42C8D395F8BA
:1042380034305B070AD5E26AEB689B1A002B09DD6C
:10424800EA68236BD31A002B00DA226387F31188FC
:104258002D68C8E72846FFF77FFE86F3118895F892
:104268003430002BECD1ABE76260E16931B391F8EF
:10427800343063B18B689B685D682846FFF717FF89
:104288000B692B6101236370FFF7BCFEE561E369ED
:10429800A3609A6A42B1586803F128052B685B68E5
:1042A80098476D68002DF9D1A36893F8353084F8E4
:1042B8005A3084F85B300548BDE8F883A4F85A10F2
:1042C800A160217081F31188F5E700BFB851002083
:1042D80038B50F4B1B681B78532BFDD10D4B9B79C1
:1042E800002BFDD10C4B1A684CF671239A42FDD174
:1042F8000A4D6FF000432B63094B0124C3E90644C0
:10430800C3E90A44C3E9084400F09EFA2C7038BD9A
:10431800404E0008FA4D00083C4E0008B8510020F5
:1043280018520020014B93F858007047B8510020EC
:10433800802383F31188034B0122D86883F858201F
:10434800FBF779BFB851002000487047124E0008AB
:1043580000487047214E0008002070470020704731
:1043680070B54B4B1A78092A00F28F80DFE802F00B
:10437800051A23323785894B565E464A1188464AC4
:1043880021B94649097801F0FF0039B101211970B6
:10439800434B117000221A808C2070BD10704FF0B2
:1043A800FF30FAE73B4A12881AB102221A70ED2050
:1043B800F3E70722FAE7374A10883A4AEF2883BF1B
:1043C800000A032140F0F00004218CBF1970197015
:1043D8001070E2E704221A702E4B1878DDE7304C93
:1043E800314922882F4D885C29780144297001328F
:1043F800284992B222800C889442CED105221A70A4
:1044080000230B80C9E708221A70244A254913782B
:104418001078013301300B70C0B2BEE709221A7060
:10442800204A1378433313704320B6E71C491F48CA
:104438000A880068845C013292B20A8017490878B9
:10444800824214D105221A70802383F31188184DF3
:1044580000260E702B681BB12868FFF77DFD2E60C3
:10446800144B5B7803F0FF020BB982F311880D4AF5
:1044780013782344137020468FE706221A70094BDD
:10448800ABE700221A708D2087E7002085E700BF80
:104498005C5200205A5200205952002058520020E5
:1044A8005E5200204C5200206852002054520020D6
:1044B80048520020B851002008B5802383F31188A2
:1044C800084B1B7833B9FFF74BFF002802DBC0B25B
:1044D800FFF796F8044B5B7803F0FF020BB982F301
:1044E800118808BD59520020B8510020044A002301
:1044F8001370044A1370044A1360044A1370704717
:104508005952002058520020485200205C52002086
:10451800034A1378591C1170024AD05C704700BFD7
:104528004F5200206052002010B5FFF7F1FF0446FB
:10453800FFF7EEFF40EA042080B210BD10B5FFF788
:10454800F3FF0446FFF7F0FF40EA044010BDFFF711
:1045580007BF0000044A1378072B9FBF0349C854BC
:1045680001331370704700BF4D5200206052002085
:10457800044A1388C72B9FBF0349C85401331380CB
:10458800704700BF5A52002068520020F8B5104FFB
:1045980005463B88C8B1C3F1C7031E2B28BF1E239D
:1045A8000024A34201D02A5D6AB92046FFF7E0FF44
:1045B80044B13E880748224630442946264400F044
:1045C8008FF93E80F8BD0134EBE70446EDE700BF04
:1045D8005A5200206852002010B50446000AFFF71E
:1045E800C7FF2046BDE81040FFF7C2BF10B504461C
:1045F800000CFFF7F1FF2046BDE81040FFF7ECBFC5
:10460800F8B5FFF785FF432808D1FFF781FF504B26
:104618001B680BB90020F8BD9847FBE74D4E35885D
:10462800002DF7D1FFF7A4FF73280ED074282BD0E4
:104638006C2827D17420FFF79BFF474B9C690CB36C
:104648002046FFF7D3FF2468F9E7434CFFF7D2F879
:10465800FFF7CCFFE069FFF7C9FFA068FFF7C6FFC7
:104668004CF67120FFF7B8FF2846FFF781FFFFF7E8
:104678006BFEFFF78BFFFFF76BFEFFF787FF284600
:10468800FFF776FF3088C6E7FFF758FF324F90F8FC
:104698003450BB6904469C4208D02BB944F24E10F2
:1046A800FFF79AFF5420EBE71B68F4E7FFF768F879
:1046B800FFF79CFF35B9BD68A5424FF0FF3518BF1D
:1046C8000025EDB22046FFF7FBF8FFF75FFF2769EB
:1046D800FF2F37D90020FFF74BFF3846FFF786FF3B
:1046E8002846FFF745FFA06880BBFFF77FFFE0681B
:1046F800FFF77CFF2046FFF72FFEFFF777FF00202C
:10470800FFF774FF0020FFF771FF2046FFF726FE32
:10471800B0F57F4F054604D3000C40F47F40FFF707
:104728005BFF2846FFF758FF2046FFF7D5F8FFF74D
:104738001FFF94F83600FFF71BFFFFF755F8FFF748
:104748004BFF9FE73846FFF713FFC9E78068CCE7C0
:10475800305300205A520020B851002010B5214C87
:104768002378052B0DD8DFE803F0030D121B2A323E
:10477800ED2806D11C4A01232370002313701B4A1D
:10478800137010BD8C282BD102232370F9E7431E28
:10479800072B25D8164B1870164B18700323F4E70F
:1047A800FFF7D8FE134A137818441070104A13788C
:1047B800013BDBB21370002BE3D10423E5E70D4B7B
:1047C8001A781044C0B2187050B90523DDE78D2857
:1047D80006D1FFF715FF18B1074B1880FFF76CFEDD
:1047E8000023D2E7505200204D5200204F520020A3
:1047F8005D5200204E5200205A52002008B5FFF7A3
:10480800AFFD002804DBC0B2FEF7FAFE002008BDA9
:104818000120FCE7044B9B68834203D11B6B0BB15F
:10482800024A1360704700BFB85100201C000020E6
:104838000048704780560020014B0248C01A704754
:1048480080560020805A0020EFF3108172B64FF096
:10485800E023D3F8202D42F47F02C3F8202D002254
:10486800C3F81C2D81F310884FF00072C3F83C2F59
:104878007047000008B5064B044613B10021AFF39A
:104888000080044B1B6803B198472046FEF7E0FE02
:10489800000000007454002070B50D4D0D4C641BD1
:1048A800A4100026A64209D10B4D0C4C00F040F98B
:1048B800641BA4100026A64205D170BD55F8043B20
:1048C80098470136EEE755F8043B98470136F2E77A
:1048D800444E0008444E0008444E0008484E000864
:1048E8000A44914200F1FF3300D1704710B511F826
:1048F800014B03F8014F9142F9D110BD024B01461B
:10490800186800F02DB800BF1C000020024B0146BB
:10491800186800F0C3B800BF1C00002070B50F4E27
:104928000C463168054611B900F09AF83060214606
:10493800284600F095F8431C03D14FF0FF34204679
:1049480070BDC41C24F00304A042F8D0211A2846E4
:1049580000F086F80130F2D1EFE700BF34530020B1
:104968002DE9F843CD1C25F0030508350C2D38BF7B
:104978000C25002D064601DBA94204D90C2333601F
:104988000020BDE8F883DFF8D480FEF73BFED8F8B6
:1049980000301C4644BB29463046FFF7BFFF431C86
:1049A800044658D1D8F800402746002F43D1002CA0
:1049B8004BD023683946304604EB030900F050F821
:1049C800814542D121686D1A29463046FFF7A6FF76
:1049D80001303AD023682B442360D8F800305A6855
:1049E80062BBC8F800700FE02268521B20D40B2A63
:1049F80017D96119A342256018BF5960636808BFB9
:104A0800C8F8001062514B603046FEF7FDFD04F116
:104A18000B00231D20F00700C21A1CBF1B1AA3504D
:104A2800AFE76268A3420CBFC8F800205A60EBE702
:104A380023466468AEE73C467F68B6E71A465B687B
:104A4800A342FBD100235360DEE70C2333603046DA
:104A5800FEF7DAFD94E70560D6E700BF385300207B
:104A680038B5064D0023044608462B60FEF7CEFDF8
:104A7800431C02D12B6803B1236038BD7854002051
:104A8800014B1868704700BF1C0000200244034611
:104A9800934200D1704703F8011BF9E738B5054682
:104AA800002941D051F8043C0C1F002BB8BFE41872
:104AB800FEF7A8FD1D4A136833B9636014602846E1
:104AC800BDE83840FEF7A0BDA34208D920682118E8
:104AD8008B4201BF19685B6809182160EDE71A4627
:104AE8005B680BB1A342FAD911685018A0420BD1E8
:104AF80020680144501883421160E0D118685B684F
:104B0800536008441060DAE702D90C232B60D6E71B
:104B1800206821188B4204BF19685B68636004BF72
:104B2800091821605460CAE738BD00BF3853002017
:104B3800F8B500BFF8BC08BC9E467047F8B500BF82
:084B4800F8BC08BC9E46704752
:104B50005472616E736D69747465725468726561C4
:104B60006400000052656369657665725468726519
:104B700061640000466F7263655377697463684EC1
:104B80006F726D616C0000005377697463684E6FDB
:104B9000726D616C0000000053656D6170686F722A
:104BA00065546872656164004D61696E5468726530
:104BB000616400000000C1C081C1400101C3C003A5
:104BC000800241C201C6C006800741C70005C1C5B9
:104BD00081C4400401CCC00C800D41CD000FC1CF79
:104BE00081CE400E000AC1CA81CB400B01C9C00969
:104BF000800841C801D8C018801941D9001BC1DB09
:104C000081DA401A001EC1DE81DF401F01DDC01DB8
:104C1000801C41DC0014C1D481D5401501D7C017D8
:104C2000801641D601D2C012801341D30011C1D1E8
:104C300081D0401001F0C030803141F10033C1F328
:104C400081F240320036C1F681F7403701F5C035B8
:104C5000803441F4003CC1FC81FD403D01FFC03F78
:104C6000803E41FE01FAC03A803B41FB0039C1F968
:104C700081F840380028C1E881E9402901EBC02BC8
:104C8000802A41EA01EEC02E802F41EF002DC1EDB8
:104C900081EC402C01E4C024802541E50027C1E7D8
:104CA00081E640260022C1E281E3402301E1C021E8
:104CB000802041E001A0C060806141A10063C1A3E8
:104CC00081A240620066C1A681A7406701A5C065B8
:104CD000806441A4006CC1AC81AD406D01AFC06F78
:104CE000806E41AE01AAC06A806B41AB0069C1A968
:104CF00081A840680078C1B881B9407901BBC07B08
:104D0000807A41BA01BEC07E807F41BF007DC1BDB7
:104D100081BC407C01B4C074807541B50077C1B7D7
:104D200081B640760072C1B281B3407301B1C071E7
:104D3000807041B00050C190819140510193C053A7
:104D4000805241920196C056805741970055C195B7
:104D500081944054019CC05C805D419D005FC19F77
:104D6000819E405E005AC19A819B405B0199C05967
:104D7000805841980188C04880494189004BC18BC7
:104D8000818A404A004EC18E818F404F018DC04DB7
:104D9000804C418C0044C184818540450187C047D7
:104DA000804641860182C042804341830041C181E7
:104DB000818040400102030405060708090A0B0C24
:104DC0000D0E0F1002030405060708090A0B0C0D4F
:104DD0000E0F10100000000001020304000000008C
:104DE000000000000102030406070809200000007B
:104DF0004F535F49646C6528290008181C20242C37
:104E000000040C1014181C24FFFFFFFFFFFFFF34E9
:104E10003536436F72746578204D34462F4D3746D2
:104E2000007637764C520053454747455220656D12
:104E3000624F5320563531383030750071CA00004A
:044E4000274E0008F1
:044E440071030008EE
:044E48004903000812
:104E4C005C010020D00000008C00002074010020C8
:104E5C00010000001000000000127A002000002069
:104E6C00000000003C530020A45300200C540020F0
:104E7C000000000000000000000000000000000026
:104E8C000000000000000000000000000000000016
:104E9C000000000000000000000000000000000006
:0C4EAC00000000000000000000000000FA
:040000050800366554
:00000001FF
